{
  "contractName": "Election",
  "abi": [
    {
      "inputs": [],
      "payable": false,
      "stateMutability": "nonpayable",
      "type": "constructor"
    },
    {
      "anonymous": false,
      "inputs": [
        {
          "indexed": true,
          "internalType": "uint256",
          "name": "_candidateId",
          "type": "uint256"
        }
      ],
      "name": "votedEvent",
      "type": "event"
    },
    {
      "constant": true,
      "inputs": [],
      "name": "addr",
      "outputs": [
        {
          "internalType": "address",
          "name": "",
          "type": "address"
        }
      ],
      "payable": false,
      "stateMutability": "view",
      "type": "function"
    },
    {
      "constant": true,
      "inputs": [
        {
          "internalType": "uint256",
          "name": "",
          "type": "uint256"
        }
      ],
      "name": "candidates",
      "outputs": [
        {
          "internalType": "uint256",
          "name": "id",
          "type": "uint256"
        },
        {
          "internalType": "string",
          "name": "name",
          "type": "string"
        },
        {
          "internalType": "string",
          "name": "email",
          "type": "string"
        },
        {
          "internalType": "uint256",
          "name": "voteCount",
          "type": "uint256"
        },
        {
          "internalType": "uint256",
          "name": "electionId",
          "type": "uint256"
        },
        {
          "internalType": "enum Election.candidate_status",
          "name": "applicationStatus",
          "type": "uint8"
        }
      ],
      "payable": false,
      "stateMutability": "view",
      "type": "function"
    },
    {
      "constant": true,
      "inputs": [],
      "name": "candidatesCount",
      "outputs": [
        {
          "internalType": "uint256",
          "name": "",
          "type": "uint256"
        }
      ],
      "payable": false,
      "stateMutability": "view",
      "type": "function"
    },
    {
      "constant": true,
      "inputs": [
        {
          "internalType": "address",
          "name": "",
          "type": "address"
        }
      ],
      "name": "lastVote",
      "outputs": [
        {
          "internalType": "uint256",
          "name": "",
          "type": "uint256"
        }
      ],
      "payable": false,
      "stateMutability": "view",
      "type": "function"
    },
    {
      "constant": true,
      "inputs": [],
      "name": "len",
      "outputs": [
        {
          "internalType": "uint256",
          "name": "",
          "type": "uint256"
        }
      ],
      "payable": false,
      "stateMutability": "view",
      "type": "function"
    },
    {
      "constant": true,
      "inputs": [
        {
          "internalType": "address",
          "name": "",
          "type": "address"
        },
        {
          "internalType": "uint256",
          "name": "",
          "type": "uint256"
        }
      ],
      "name": "votedList",
      "outputs": [
        {
          "internalType": "bool",
          "name": "",
          "type": "bool"
        }
      ],
      "payable": false,
      "stateMutability": "view",
      "type": "function"
    },
    {
      "constant": true,
      "inputs": [
        {
          "internalType": "address",
          "name": "",
          "type": "address"
        }
      ],
      "name": "voter",
      "outputs": [
        {
          "internalType": "uint256",
          "name": "",
          "type": "uint256"
        }
      ],
      "payable": false,
      "stateMutability": "view",
      "type": "function"
    },
    {
      "constant": true,
      "inputs": [
        {
          "internalType": "uint256",
          "name": "",
          "type": "uint256"
        }
      ],
      "name": "voterList",
      "outputs": [
        {
          "internalType": "uint256",
          "name": "id",
          "type": "uint256"
        },
        {
          "internalType": "string",
          "name": "email",
          "type": "string"
        },
        {
          "internalType": "bool",
          "name": "voted",
          "type": "bool"
        }
      ],
      "payable": false,
      "stateMutability": "view",
      "type": "function"
    },
    {
      "constant": false,
      "inputs": [
        {
          "internalType": "string",
          "name": "subject",
          "type": "string"
        },
        {
          "internalType": "string",
          "name": "description",
          "type": "string"
        },
        {
          "internalType": "string",
          "name": "startDate",
          "type": "string"
        },
        {
          "internalType": "string",
          "name": "endDate",
          "type": "string"
        }
      ],
      "name": "addElection",
      "outputs": [],
      "payable": false,
      "stateMutability": "nonpayable",
      "type": "function"
    },
    {
      "constant": true,
      "inputs": [],
      "name": "showAllElections",
      "outputs": [
        {
          "components": [
            {
              "internalType": "uint256",
              "name": "id",
              "type": "uint256"
            },
            {
              "internalType": "string",
              "name": "subject",
              "type": "string"
            },
            {
              "internalType": "string",
              "name": "description",
              "type": "string"
            },
            {
              "internalType": "string",
              "name": "startDate",
              "type": "string"
            },
            {
              "internalType": "string",
              "name": "endDate",
              "type": "string"
            },
            {
              "internalType": "enum Election.election_status",
              "name": "status",
              "type": "uint8"
            }
          ],
          "internalType": "struct Election.election[]",
          "name": "",
          "type": "tuple[]"
        }
      ],
      "payable": false,
      "stateMutability": "view",
      "type": "function"
    },
    {
      "constant": true,
      "inputs": [
        {
          "internalType": "uint256",
          "name": "id",
          "type": "uint256"
        }
      ],
      "name": "showElection",
      "outputs": [
        {
          "components": [
            {
              "internalType": "uint256",
              "name": "id",
              "type": "uint256"
            },
            {
              "internalType": "string",
              "name": "subject",
              "type": "string"
            },
            {
              "internalType": "string",
              "name": "description",
              "type": "string"
            },
            {
              "internalType": "string",
              "name": "startDate",
              "type": "string"
            },
            {
              "internalType": "string",
              "name": "endDate",
              "type": "string"
            },
            {
              "internalType": "enum Election.election_status",
              "name": "status",
              "type": "uint8"
            }
          ],
          "internalType": "struct Election.election",
          "name": "",
          "type": "tuple"
        }
      ],
      "payable": false,
      "stateMutability": "view",
      "type": "function"
    },
    {
      "constant": true,
      "inputs": [],
      "name": "showCandidates",
      "outputs": [
        {
          "components": [
            {
              "internalType": "uint256",
              "name": "id",
              "type": "uint256"
            },
            {
              "internalType": "string",
              "name": "name",
              "type": "string"
            },
            {
              "internalType": "string",
              "name": "email",
              "type": "string"
            },
            {
              "internalType": "uint256",
              "name": "voteCount",
              "type": "uint256"
            },
            {
              "internalType": "uint256",
              "name": "electionId",
              "type": "uint256"
            },
            {
              "internalType": "enum Election.candidate_status",
              "name": "applicationStatus",
              "type": "uint8"
            }
          ],
          "internalType": "struct Election.Candidate[]",
          "name": "",
          "type": "tuple[]"
        }
      ],
      "payable": false,
      "stateMutability": "view",
      "type": "function"
    },
    {
      "constant": false,
      "inputs": [
        {
          "internalType": "uint256",
          "name": "id",
          "type": "uint256"
        }
      ],
      "name": "startElection",
      "outputs": [],
      "payable": false,
      "stateMutability": "nonpayable",
      "type": "function"
    },
    {
      "constant": false,
      "inputs": [
        {
          "internalType": "uint256",
          "name": "id",
          "type": "uint256"
        }
      ],
      "name": "endElection",
      "outputs": [],
      "payable": false,
      "stateMutability": "nonpayable",
      "type": "function"
    },
    {
      "constant": false,
      "inputs": [
        {
          "internalType": "string",
          "name": "_name",
          "type": "string"
        },
        {
          "internalType": "string",
          "name": "_email",
          "type": "string"
        },
        {
          "internalType": "uint256",
          "name": "elec_id",
          "type": "uint256"
        }
      ],
      "name": "addCandidate",
      "outputs": [],
      "payable": false,
      "stateMutability": "nonpayable",
      "type": "function"
    },
    {
      "constant": false,
      "inputs": [
        {
          "internalType": "uint256",
          "name": "_candidateId",
          "type": "uint256"
        }
      ],
      "name": "approveCandiate",
      "outputs": [],
      "payable": false,
      "stateMutability": "nonpayable",
      "type": "function"
    },
    {
      "constant": false,
      "inputs": [
        {
          "internalType": "uint256",
          "name": "_candidateId",
          "type": "uint256"
        }
      ],
      "name": "rejectCandiate",
      "outputs": [],
      "payable": false,
      "stateMutability": "nonpayable",
      "type": "function"
    },
    {
      "constant": false,
      "inputs": [
        {
          "internalType": "address",
          "name": "_voter",
          "type": "address"
        }
      ],
      "name": "addVoter",
      "outputs": [],
      "payable": false,
      "stateMutability": "nonpayable",
      "type": "function"
    },
    {
      "constant": false,
      "inputs": [
        {
          "internalType": "uint256",
          "name": "_electionId",
          "type": "uint256"
        }
      ],
      "name": "winner",
      "outputs": [
        {
          "components": [
            {
              "internalType": "uint256",
              "name": "id",
              "type": "uint256"
            },
            {
              "internalType": "string",
              "name": "name",
              "type": "string"
            },
            {
              "internalType": "string",
              "name": "email",
              "type": "string"
            },
            {
              "internalType": "uint256",
              "name": "voteCount",
              "type": "uint256"
            },
            {
              "internalType": "uint256",
              "name": "electionId",
              "type": "uint256"
            },
            {
              "internalType": "enum Election.candidate_status",
              "name": "applicationStatus",
              "type": "uint8"
            }
          ],
          "internalType": "struct Election.Candidate",
          "name": "",
          "type": "tuple"
        }
      ],
      "payable": false,
      "stateMutability": "nonpayable",
      "type": "function"
    },
    {
      "constant": false,
      "inputs": [
        {
          "internalType": "uint256",
          "name": "_candidateId",
          "type": "uint256"
        },
        {
          "internalType": "uint256",
          "name": "_electionId",
          "type": "uint256"
        }
      ],
      "name": "vote",
      "outputs": [],
      "payable": false,
      "stateMutability": "nonpayable",
      "type": "function"
    }
  ],
  "bytecode": "0x6080604052600060015560006005556000600b5534801561001f57600080fd5b5033600260006101000a81548173ffffffffffffffffffffffffffffffffffffffff021916908373ffffffffffffffffffffffffffffffffffffffff160217905550612da8806100706000396000f3fe608060405234801561001057600080fd5b506004361061012c5760003560e01c80636d32dc4b116100ad578063a50a69d311610071578063a50a69d31461035e578063af0dbe541461037a578063b384abef146103aa578063d0ab56cd146103c6578063f4ab9adf146103e25761012c565b80636d32dc4b146102a8578063767800de146102c4578063989eefe4146102e25780639c98bcbb14610312578063a4c042651461032e5761012c565b80633477ee2e116100f45780633477ee2e146101d75780633ca09fdf1461020c57806350e2e8af1461022857806356d88e271461025a5780636accc8cf146102785761012c565b806302124656146101315780631cbeae5e1461014d5780631d7b90e01461017d5780632d35a8a21461019b57806332771a0d146101b9575b600080fd5b61014b600480360361014691908101906121e6565b6103fe565b005b610167600480360361016291908101906121e6565b6104d4565b6040516101749190612a34565b60405180910390f35b6101856108e3565b60405161019291906128d5565b60405180910390f35b6101a3610ad1565b6040516101b09190612a78565b60405180910390f35b6101c1610ad7565b6040516101ce91906128f7565b60405180910390f35b6101f160048036036101ec91908101906121e6565b610df5565b60405161020396959493929190612ad1565b60405180910390f35b61022660048036036102219190810190612167565b610f7b565b005b610242600480360361023d91908101906121e6565b61107f565b60405161025193929190612a93565b60405180910390f35b61026261115b565b60405161026f9190612a78565b60405180910390f35b610292600480360361028d919081019061203f565b611161565b60405161029f9190612a78565b60405180910390f35b6102c260048036036102bd91908101906121e6565b611179565b005b6102cc6112a0565b6040516102d991906128ba565b60405180910390f35b6102fc60048036036102f79190810190612068565b6112c6565b6040516103099190612919565b60405180910390f35b61032c600480360361032791908101906121e6565b6112f5565b005b610348600480360361034391908101906121e6565b61141c565b6040516103559190612a56565b60405180910390f35b610378600480360361037391908101906120a4565b611713565b005b610394600480360361038f919081019061203f565b6118cb565b6040516103a19190612a78565b60405180910390f35b6103c460048036036103bf919081019061220f565b6118e3565b005b6103e060048036036103db91908101906121e6565b611c14565b005b6103fc60048036036103f7919081019061203f565b611cea565b005b3373ffffffffffffffffffffffffffffffffffffffff16600260009054906101000a900473ffffffffffffffffffffffffffffffffffffffff1673ffffffffffffffffffffffffffffffffffffffff161461048e576040517f08c379a000000000000000000000000000000000000000000000000000000000815260040161048590612a14565b60405180910390fd5b6001600360018303815481106104a057fe5b906000526020600020906006020160050160006101000a81548160ff021916908360028111156104cc57fe5b021790555050565b6104dc611e36565b600182101580156104ef57506001548211155b61052e576040517f08c379a0000000000000000000000000000000000000000000000000000000008152600401610525906129d4565b60405180910390fd5b60028081111561053a57fe5b6000600184038154811061054a57fe5b906000526020600020906006020160050160009054906101000a900460ff16600281111561057457fe5b146105b4576040517f08c379a00000000000000000000000000000000000000000000000000000000081526004016105ab90612974565b60405180910390fd5b600080905060008090505b6004548110156106055783600382815481106105d757fe5b90600052602060002090600602016004015414156105f85781806001019250505b80806001019150506105bf565b5060608160405190808252806020026020018201604052801561064257816020015b61062f611e77565b8152602001906001900390816106275790505b509050600080905060008090505b60045481101561086057856003828154811061066857fe5b9060005260206000209060060201600401541415610853576003818154811061068d57fe5b90600052602060002090600602016040518060c001604052908160008201548152602001600182018054600181600116156101000203166002900480601f0160208091040260200160405190810160405280929190818152602001828054600181600116156101000203166002900480156107495780601f1061071e57610100808354040283529160200191610749565b820191906000526020600020905b81548152906001019060200180831161072c57829003601f168201915b50505050508152602001600282018054600181600116156101000203166002900480601f0160208091040260200160405190810160405280929190818152602001828054600181600116156101000203166002900480156107eb5780601f106107c0576101008083540402835291602001916107eb565b820191906000526020600020905b8154815290600101906020018083116107ce57829003601f168201915b5050505050815260200160038201548152602001600482015481526020016005820160009054906101000a900460ff16600281111561082657fe5b600281111561083157fe5b8152505083838060010194508151811061084757fe5b60200260200101819052505b8080600101915050610650565b50610869611e36565b8260008151811061087657fe5b602002602001015190506000600190505b828110156108d65781606001518482815181106108a057fe5b60200260200101516060015111156108c9578381815181106108be57fe5b602002602001015191505b8080600101915050610887565b5080945050505050919050565b60606003805480602002602001604051908101604052809291908181526020016000905b82821015610ac857838290600052602060002090600602016040518060c001604052908160008201548152602001600182018054600181600116156101000203166002900480601f0160208091040260200160405190810160405280929190818152602001828054600181600116156101000203166002900480156109cd5780601f106109a2576101008083540402835291602001916109cd565b820191906000526020600020905b8154815290600101906020018083116109b057829003601f168201915b50505050508152602001600282018054600181600116156101000203166002900480601f016020809104026020016040519081016040528092919081815260200182805460018160011615610100020316600290048015610a6f5780601f10610a4457610100808354040283529160200191610a6f565b820191906000526020600020905b815481529060010190602001808311610a5257829003601f168201915b5050505050815260200160038201548152602001600482015481526020016005820160009054906101000a900460ff166002811115610aaa57fe5b6002811115610ab557fe5b8152505081526020019060010190610907565b50505050905090565b60045481565b60606000805480602002602001604051908101604052809291908181526020016000905b82821015610dec57838290600052602060002090600602016040518060c001604052908160008201548152602001600182018054600181600116156101000203166002900480601f016020809104026020016040519081016040528092919081815260200182805460018160011615610100020316600290048015610bc15780601f10610b9657610100808354040283529160200191610bc1565b820191906000526020600020905b815481529060010190602001808311610ba457829003601f168201915b50505050508152602001600282018054600181600116156101000203166002900480601f016020809104026020016040519081016040528092919081815260200182805460018160011615610100020316600290048015610c635780601f10610c3857610100808354040283529160200191610c63565b820191906000526020600020905b815481529060010190602001808311610c4657829003601f168201915b50505050508152602001600382018054600181600116156101000203166002900480601f016020809104026020016040519081016040528092919081815260200182805460018160011615610100020316600290048015610d055780601f10610cda57610100808354040283529160200191610d05565b820191906000526020600020905b815481529060010190602001808311610ce857829003601f168201915b50505050508152602001600482018054600181600116156101000203166002900480601f016020809104026020016040519081016040528092919081815260200182805460018160011615610100020316600290048015610da75780601f10610d7c57610100808354040283529160200191610da7565b820191906000526020600020905b815481529060010190602001808311610d8a57829003601f168201915b505050505081526020016005820160009054906101000a900460ff166002811115610dce57fe5b6002811115610dd957fe5b8152505081526020019060010190610afb565b50505050905090565b60038181548110610e0257fe5b9060005260206000209060060201600091509050806000015490806001018054600181600116156101000203166002900480601f016020809104026020016040519081016040528092919081815260200182805460018160011615610100020316600290048015610eb45780601f10610e8957610100808354040283529160200191610eb4565b820191906000526020600020905b815481529060010190602001808311610e9757829003601f168201915b505050505090806002018054600181600116156101000203166002900480601f016020809104026020016040519081016040528092919081815260200182805460018160011615610100020316600290048015610f525780601f10610f2757610100808354040283529160200191610f52565b820191906000526020600020905b815481529060010190602001808311610f3557829003601f168201915b5050505050908060030154908060040154908060050160009054906101000a900460ff16905086565b60046000815480929190600101919050555060036040518060c0016040528060045481526020018581526020018481526020016000815260200183815260200160006002811115610fc857fe5b8152509080600181540180825580915050906001820390600052602060002090600602016000909192909190915060008201518160000155602082015181600101908051906020019061101c929190611eb8565b506040820151816002019080519060200190611039929190611eb8565b50606082015181600301556080820151816004015560a08201518160050160006101000a81548160ff0219169083600281111561107257fe5b0217905550505050505050565b6009818154811061108c57fe5b9060005260206000209060030201600091509050806000015490806001018054600181600116156101000203166002900480601f01602080910402602001604051908101604052809291908181526020018280546001816001161561010002031660029004801561113e5780601f106111135761010080835404028352916020019161113e565b820191906000526020600020905b81548152906001019060200180831161112157829003601f168201915b5050505050908060020160009054906101000a900460ff16905083565b600b5481565b60076020528060005260406000206000915090505481565b3373ffffffffffffffffffffffffffffffffffffffff16600260009054906101000a900473ffffffffffffffffffffffffffffffffffffffff1673ffffffffffffffffffffffffffffffffffffffff1614611209576040517f08c379a000000000000000000000000000000000000000000000000000000000815260040161120090612a14565b60405180910390fd5b600154811115801561121b5750600081115b61125a576040517f08c379a0000000000000000000000000000000000000000000000000000000008152600401611251906129f4565b60405180910390fd5b60016000600183038154811061126c57fe5b906000526020600020906006020160050160006101000a81548160ff0219169083600281111561129857fe5b021790555050565b600a60009054906101000a900473ffffffffffffffffffffffffffffffffffffffff1681565b60086020528160005260406000206020528060005260406000206000915091509054906101000a900460ff1681565b3373ffffffffffffffffffffffffffffffffffffffff16600260009054906101000a900473ffffffffffffffffffffffffffffffffffffffff1673ffffffffffffffffffffffffffffffffffffffff1614611385576040517f08c379a000000000000000000000000000000000000000000000000000000000815260040161137c90612a14565b60405180910390fd5b60015481111580156113975750600081115b6113d6576040517f08c379a00000000000000000000000000000000000000000000000000000000081526004016113cd906129f4565b60405180910390fd5b6002600060018303815481106113e857fe5b906000526020600020906006020160050160006101000a81548160ff0219169083600281111561141457fe5b021790555050565b611424611f38565b6000600183038154811061143457fe5b90600052602060002090600602016040518060c001604052908160008201548152602001600182018054600181600116156101000203166002900480601f0160208091040260200160405190810160405280929190818152602001828054600181600116156101000203166002900480156114f05780601f106114c5576101008083540402835291602001916114f0565b820191906000526020600020905b8154815290600101906020018083116114d357829003601f168201915b50505050508152602001600282018054600181600116156101000203166002900480601f0160208091040260200160405190810160405280929190818152602001828054600181600116156101000203166002900480156115925780601f1061156757610100808354040283529160200191611592565b820191906000526020600020905b81548152906001019060200180831161157557829003601f168201915b50505050508152602001600382018054600181600116156101000203166002900480601f0160208091040260200160405190810160405280929190818152602001828054600181600116156101000203166002900480156116345780601f1061160957610100808354040283529160200191611634565b820191906000526020600020905b81548152906001019060200180831161161757829003601f168201915b50505050508152602001600482018054600181600116156101000203166002900480601f0160208091040260200160405190810160405280929190818152602001828054600181600116156101000203166002900480156116d65780601f106116ab576101008083540402835291602001916116d6565b820191906000526020600020905b8154815290600101906020018083116116b957829003601f168201915b505050505081526020016005820160009054906101000a900460ff1660028111156116fd57fe5b600281111561170857fe5b815250509050919050565b3373ffffffffffffffffffffffffffffffffffffffff16600260009054906101000a900473ffffffffffffffffffffffffffffffffffffffff1673ffffffffffffffffffffffffffffffffffffffff16146117a3576040517f08c379a000000000000000000000000000000000000000000000000000000000815260040161179a90612a14565b60405180910390fd5b6001806000828254019250508190555060006040518060c001604052806001548152602001868152602001858152602001848152602001838152602001600060028111156117ed57fe5b81525090806001815401808255809150509060018203906000526020600020906006020160009091929091909150600082015181600001556020820151816001019080519060200190611841929190611eb8565b50604082015181600201908051906020019061185e929190611eb8565b50606082015181600301908051906020019061187b929190611eb8565b506080820151816004019080519060200190611898929190611eb8565b5060a08201518160050160006101000a81548160ff021916908360028111156118bd57fe5b021790555050505050505050565b60066020528060005260406000206000915090505481565b600060096001600660003373ffffffffffffffffffffffffffffffffffffffff1673ffffffffffffffffffffffffffffffffffffffff16815260200190815260200160002054038154811061193457fe5b90600052602060002090600302016000015411611986576040517f08c379a000000000000000000000000000000000000000000000000000000000815260040161197d906129b4565b60405180910390fd5b6001548111156119cb576040517f08c379a00000000000000000000000000000000000000000000000000000000081526004016119c290612994565b60405180910390fd5b60001515600860003373ffffffffffffffffffffffffffffffffffffffff1673ffffffffffffffffffffffffffffffffffffffff168152602001908152602001600020600083815260200190815260200160002060009054906101000a900460ff16151514611a6f576040517f08c379a0000000000000000000000000000000000000000000000000000000008152600401611a6690612954565b60405180910390fd5b600082118015611a8157506004548211155b611a8a57600080fd5b60016002811115611a9757fe5b6000600160036001860381548110611aab57fe5b9060005260206000209060060201600401540381548110611ac857fe5b906000526020600020906006020160050160009054906101000a900460ff166002811115611af257fe5b14611b32576040517f08c379a0000000000000000000000000000000000000000000000000000000008152600401611b2990612934565b60405180910390fd5b60036001830381548110611b4257fe5b90600052602060002090600602016003016000815480929190600101919050555081600760003373ffffffffffffffffffffffffffffffffffffffff1673ffffffffffffffffffffffffffffffffffffffff168152602001908152602001600020819055506001600860003373ffffffffffffffffffffffffffffffffffffffff1673ffffffffffffffffffffffffffffffffffffffff168152602001908152602001600020600083815260200190815260200160002060006101000a81548160ff0219169083151502179055505050565b3373ffffffffffffffffffffffffffffffffffffffff16600260009054906101000a900473ffffffffffffffffffffffffffffffffffffffff1673ffffffffffffffffffffffffffffffffffffffff1614611ca4576040517f08c379a0000000000000000000000000000000000000000000000000000000008152600401611c9b90612a14565b60405180910390fd5b600260036001830381548110611cb657fe5b906000526020600020906006020160050160006101000a81548160ff02191690836002811115611ce257fe5b021790555050565b600160056000828254019250508190555080600a60006101000a81548173ffffffffffffffffffffffffffffffffffffffff021916908373ffffffffffffffffffffffffffffffffffffffff160217905550600554600660008373ffffffffffffffffffffffffffffffffffffffff1673ffffffffffffffffffffffffffffffffffffffff16815260200190815260200160002081905550611d8a611f79565b611d95600554611e13565b905060098190806001815401808255809150509060018203906000526020600020906003020160009091929091909150600082015181600001556020820151816001019080519060200190611deb929190611eb8565b5060408201518160020160006101000a81548160ff0219169083151502179055505050505050565b611e1b611f79565b611e23611f79565b8281600001818152505080915050919050565b6040518060c00160405280600081526020016060815260200160608152602001600081526020016000815260200160006002811115611e7157fe5b81525090565b6040518060c00160405280600081526020016060815260200160608152602001600081526020016000815260200160006002811115611eb257fe5b81525090565b828054600181600116156101000203166002900490600052602060002090601f016020900481019282601f10611ef957805160ff1916838001178555611f27565b82800160010185558215611f27579182015b82811115611f26578251825591602001919060010190611f0b565b5b509050611f349190611f9c565b5090565b6040518060c00160405280600081526020016060815260200160608152602001606081526020016060815260200160006002811115611f7357fe5b81525090565b604051806060016040528060008152602001606081526020016000151581525090565b611fbe91905b80821115611fba576000816000905550600101611fa2565b5090565b90565b600081359050611fd081612d37565b92915050565b600082601f830112611fe757600080fd5b8135611ffa611ff582612b6d565b612b40565b9150808252602083016020830185838301111561201657600080fd5b612021838284612cca565b50505092915050565b60008135905061203981612d4e565b92915050565b60006020828403121561205157600080fd5b600061205f84828501611fc1565b91505092915050565b6000806040838503121561207b57600080fd5b600061208985828601611fc1565b925050602061209a8582860161202a565b9150509250929050565b600080600080608085870312156120ba57600080fd5b600085013567ffffffffffffffff8111156120d457600080fd5b6120e087828801611fd6565b945050602085013567ffffffffffffffff8111156120fd57600080fd5b61210987828801611fd6565b935050604085013567ffffffffffffffff81111561212657600080fd5b61213287828801611fd6565b925050606085013567ffffffffffffffff81111561214f57600080fd5b61215b87828801611fd6565b91505092959194509250565b60008060006060848603121561217c57600080fd5b600084013567ffffffffffffffff81111561219657600080fd5b6121a286828701611fd6565b935050602084013567ffffffffffffffff8111156121bf57600080fd5b6121cb86828701611fd6565b92505060406121dc8682870161202a565b9150509250925092565b6000602082840312156121f857600080fd5b60006122068482850161202a565b91505092915050565b6000806040838503121561222257600080fd5b60006122308582860161202a565b92505060206122418582860161202a565b9150509250929050565b600061225783836126d0565b905092915050565b600061226b83836127fe565b905092915050565b61227c81612c38565b82525050565b600061228d82612bb9565b6122978185612bf4565b9350836020820285016122a985612b99565b8060005b858110156122e557848403895281516122c6858261224b565b94506122d183612bda565b925060208a019950506001810190506122ad565b50829750879550505050505092915050565b600061230282612bc4565b61230c8185612c05565b93508360208202850161231e85612ba9565b8060005b8581101561235a578484038952815161233b858261225f565b945061234683612be7565b925060208a01995050600181019050612322565b50829750879550505050505092915050565b61237581612c4a565b82525050565b61238481612ca6565b82525050565b61239381612ca6565b82525050565b6123a281612cb8565b82525050565b60006123b382612bcf565b6123bd8185612c16565b93506123cd818560208601612cd9565b6123d681612d0c565b840191505092915050565b60006123ec82612bcf565b6123f68185612c27565b9350612406818560208601612cd9565b61240f81612d0c565b840191505092915050565b6000612427601183612c27565b91507f656c656374696f6e206e6f74206c6976650000000000000000000000000000006000830152602082019050919050565b6000612467600d83612c27565b91507f616c726561647920766f746564000000000000000000000000000000000000006000830152602082019050919050565b60006124a7601d83612c27565b91507f456c656374696f6e206973206e6f7420636f6d706c65746564207965740000006000830152602082019050919050565b60006124e7601a83612c27565b91507f456c656374696f6e20494420646f6573206e6f742065786973740000000000006000830152602082019050919050565b6000612527602283612c27565b91507f55736572206e6f7420726567697374657265642061732076616c696420766f7460008301527f65720000000000000000000000000000000000000000000000000000000000006020830152604082019050919050565b600061258d601583612c27565b91507f456c656374696f6e204944206e6f742076616c696400000000000000000000006000830152602082019050919050565b60006125cd601283612c27565b91507f496e76616c696420656c6374696f6e20696400000000000000000000000000006000830152602082019050919050565b600061260d601183612c27565b91507f61646d696e2061636365737320726571640000000000000000000000000000006000830152602082019050919050565b600060c083016000830151612658600086018261289c565b506020830151848203602086015261267082826123a8565b9150506040830151848203604086015261268a82826123a8565b915050606083015161269f606086018261289c565b5060808301516126b2608086018261289c565b5060a08301516126c560a086018261237b565b508091505092915050565b600060c0830160008301516126e8600086018261289c565b506020830151848203602086015261270082826123a8565b9150506040830151848203604086015261271a82826123a8565b915050606083015161272f606086018261289c565b506080830151612742608086018261289c565b5060a083015161275560a086018261237b565b508091505092915050565b600060c083016000830151612778600086018261289c565b506020830151848203602086015261279082826123a8565b915050604083015184820360408601526127aa82826123a8565b915050606083015184820360608601526127c482826123a8565b915050608083015184820360808601526127de82826123a8565b91505060a08301516127f360a0860182612399565b508091505092915050565b600060c083016000830151612816600086018261289c565b506020830151848203602086015261282e82826123a8565b9150506040830151848203604086015261284882826123a8565b9150506060830151848203606086015261286282826123a8565b9150506080830151848203608086015261287c82826123a8565b91505060a083015161289160a0860182612399565b508091505092915050565b6128a581612c9c565b82525050565b6128b481612c9c565b82525050565b60006020820190506128cf6000830184612273565b92915050565b600060208201905081810360008301526128ef8184612282565b905092915050565b6000602082019050818103600083015261291181846122f7565b905092915050565b600060208201905061292e600083018461236c565b92915050565b6000602082019050818103600083015261294d8161241a565b9050919050565b6000602082019050818103600083015261296d8161245a565b9050919050565b6000602082019050818103600083015261298d8161249a565b9050919050565b600060208201905081810360008301526129ad816124da565b9050919050565b600060208201905081810360008301526129cd8161251a565b9050919050565b600060208201905081810360008301526129ed81612580565b9050919050565b60006020820190508181036000830152612a0d816125c0565b9050919050565b60006020820190508181036000830152612a2d81612600565b9050919050565b60006020820190508181036000830152612a4e8184612640565b905092915050565b60006020820190508181036000830152612a708184612760565b905092915050565b6000602082019050612a8d60008301846128ab565b92915050565b6000606082019050612aa860008301866128ab565b8181036020830152612aba81856123e1565b9050612ac9604083018461236c565b949350505050565b600060c082019050612ae660008301896128ab565b8181036020830152612af881886123e1565b90508181036040830152612b0c81876123e1565b9050612b1b60608301866128ab565b612b2860808301856128ab565b612b3560a083018461238a565b979650505050505050565b6000604051905081810181811067ffffffffffffffff82111715612b6357600080fd5b8060405250919050565b600067ffffffffffffffff821115612b8457600080fd5b601f19601f8301169050602081019050919050565b6000819050602082019050919050565b6000819050602082019050919050565b600081519050919050565b600081519050919050565b600081519050919050565b6000602082019050919050565b6000602082019050919050565b600082825260208201905092915050565b600082825260208201905092915050565b600082825260208201905092915050565b600082825260208201905092915050565b6000612c4382612c7c565b9050919050565b60008115159050919050565b6000819050612c6482612d1d565b919050565b6000819050612c7782612d2a565b919050565b600073ffffffffffffffffffffffffffffffffffffffff82169050919050565b6000819050919050565b6000612cb182612c56565b9050919050565b6000612cc382612c69565b9050919050565b82818337600083830152505050565b60005b83811015612cf7578082015181840152602081019050612cdc565b83811115612d06576000848401525b50505050565b6000601f19601f8301169050919050565b60038110612d2757fe5b50565b60038110612d3457fe5b50565b612d4081612c38565b8114612d4b57600080fd5b50565b612d5781612c9c565b8114612d6257600080fd5b5056fea365627a7a7231582073c4bf4cb791592db73e761b9a81f1cd2c23b09dd885e7e4563383fafb7ac8096c6578706572696d656e74616cf564736f6c63430005100040",
  "source": "// SPDX-License-Identifier: GPL-3.0\r\npragma experimental ABIEncoderV2;\r\n\r\npragma solidity >=0.5.1;\r\n\r\ncontract Election {\r\n\r\n     struct Candidate {\r\n        uint id;\r\n        string name;\r\n        string email;\r\n        uint voteCount;\r\n        uint electionId;\r\n        candidate_status applicationStatus;\r\n    }\r\n\r\n     struct election{\r\n        uint id;\r\n        string subject;\r\n        string description;\r\n        string startDate;\r\n        string endDate;\r\n        election_status status;\r\n    }\r\n\r\n    struct Voter{\r\n        uint id;\r\n        string email;\r\n        bool voted;\r\n    }\r\n\r\n    enum election_status{ CREATED, STARTED , COMPLETED}\r\n    enum candidate_status{ APPLIED, APPROVED, REJECTED }\r\n\r\n    election[] elections;\r\n    uint electionCount=0;\r\n    address private admin;\r\n    Candidate[] public candidates;\r\n    uint public candidatesCount;\r\n    uint voterCount=0;\r\n    \r\n    \r\n    \r\n    constructor() public{\r\n        admin=msg.sender;\r\n    }\r\n   \r\n\r\n    modifier onlyAdmin(){\r\n        require(admin==msg.sender,\"admin access reqd\");\r\n        _;\r\n    }\r\n\r\n\r\n    event votedEvent (\r\n        uint indexed _candidateId\r\n    );\r\n\r\n\r\n    function addElection(string memory subject,\r\n    string memory description,\r\n    string memory startDate,\r\n    string memory endDate) public onlyAdmin {\r\n        electionCount+=1;\r\n       elections.push(election(electionCount,subject,description,startDate,endDate,election_status.CREATED));\r\n    //    for(uint i=0;i<candidates_list.length;i++){\r\n    //        addCandidate(candidates_list[i],candidates_list[i],electionCount);\r\n    //    }\r\n    }\r\n\r\n    function showAllElections() public view returns(election[] memory){\r\n        return elections;\r\n    }\r\n\r\n    function showElection(uint  id) public view returns(election memory){\r\n        return elections[id-1];\r\n    }\r\n\r\n    function showCandidates() public view returns(Candidate[] memory)\r\n    {\r\n      return candidates;\r\n    }\r\n\r\n    function startElection(uint id) public onlyAdmin {\r\n        require(id<=electionCount && id>0,\"Invalid elction id\");\r\n        elections[id-1].status=election_status.STARTED;\r\n    }\r\n\r\n    function endElection(uint id) public onlyAdmin{\r\n        require(id<=electionCount && id>0,\"Invalid elction id\");\r\n        elections[id-1].status=election_status.COMPLETED;\r\n    }\r\n\r\n    function addCandidate (string memory _name,string memory _email,uint  elec_id) public {\r\n        candidatesCount ++;\r\n        candidates.push(Candidate(candidatesCount, _name,_email ,0,elec_id,candidate_status.APPLIED));\r\n    }\r\n\r\n    function approveCandiate(uint _candidateId) public onlyAdmin {\r\n       candidates[_candidateId-1].applicationStatus=candidate_status.APPROVED;\r\n   }\r\n   \r\n   function rejectCandiate(uint _candidateId) public onlyAdmin {\r\n       candidates[_candidateId-1].applicationStatus=candidate_status.REJECTED;\r\n   }\r\n\r\n\r\n     mapping(address => uint) public voter;\r\n     mapping(address => uint) public lastVote;\r\n     mapping(address => mapping(uint=>bool)) public votedList;\r\n     \r\n     Voter[] public voterList;\r\n\r\n     address public addr;\r\n     \r\n     function createVoter(uint ct) private returns(Voter memory){\r\n         Voter memory v;\r\n         v.id=ct;\r\n         return v;\r\n     }\r\n\r\n     function addVoter(address  _voter) public\r\n    // returns(Voter storage)\r\n     {\r\n         //mapping(uint=>bool) memory ele_voted;\r\n         //votedList[_voter]=ele_voted;\r\n         voterCount+=1;\r\n         addr=_voter;\r\n         voter[_voter]=voterCount;\r\n         Voter memory voterIns=createVoter(voterCount);\r\n         voterList.push(voterIns);\r\n         \r\n         //return voterIns;\r\n     }\r\n     \r\n    uint public len=0;\r\n    \r\n    function winner(uint _electionId) public returns (Candidate memory) \r\n    {\r\n        //require(admin==msg.sender,\"Admin Only\");\r\n        require(_electionId>=1 && _electionId<=electionCount,\"Election ID not valid\");\r\n        require(elections[_electionId-1].status==election_status.COMPLETED,\"Election is not completed yet\");\r\n        \r\n        \r\n        uint count=0;\r\n        for(uint i=0;i<candidatesCount;i++)\r\n        {\r\n            if(candidates[i].electionId==_electionId)\r\n            {\r\n                count++;\r\n            }\r\n        }\r\n        Candidate [] memory resultCandidate = new Candidate[](count);\r\n        uint j=0;\r\n        for(uint i=0;i<candidatesCount;i++)\r\n        {\r\n            if(candidates[i].electionId==_electionId)\r\n            {\r\n                resultCandidate[j++]=candidates[i];\r\n            }\r\n        }\r\n\r\n        Candidate memory winnerCandidate;\r\n        winnerCandidate=resultCandidate[0];\r\n        for(uint i=1;i<j;i++)\r\n        {\r\n            if(resultCandidate[i].voteCount>winnerCandidate.voteCount)\r\n            winnerCandidate=resultCandidate[i];\r\n        }\r\n        return winnerCandidate;\r\n    }\r\n    \r\n    \r\n    function vote (uint _candidateId ,uint _electionId)public \r\n    {\r\n    \r\n    require(voterList[voter[msg.sender]-1].id>0,\"User not registered as valid voter\");\r\n        //require(!voterList[voter[msg.sender]-1].voted[_electionId-1],\"already voted\");\r\n        require(_electionId<=electionCount,\"Election ID does not exist\");\r\n        require(votedList[msg.sender][_electionId]==false,\"already voted\");\r\n        require(_candidateId > 0 && _candidateId <= candidatesCount);\r\n\r\n        require(elections[candidates[_candidateId-1].electionId-1].status==election_status.STARTED,\"election not live\");\r\n       //voterList[voter[msg.sender]-1].voted.push(_electionId-1);\r\n\r\n        candidates[_candidateId-1].voteCount ++;\r\n        lastVote[msg.sender]=_candidateId;\r\n        votedList[msg.sender][_electionId]=true;\r\n\r\n       // emit votedEvent(_candidateId);\r\n    }\r\n}",
  "sourcePath": "C:/Users/ACER/Desktop/Major Project combined 2/Major Project combined 2/Major Project combined/Major Project/blockchain/contracts/Election.sol",
  "compiler": {
    "name": "solc",
    "version": "0.5.16+commit.9c3226ce.Emscripten.clang"
  },
  "schemaVersion": "3.3.4",
  "updatedAt": "2021-06-03T05:30:58.430Z",
  "networkType": "ethereum",
  "devdoc": {
    "methods": {}
  },
  "userdoc": {
    "methods": {}
  }
}